{
  "_format": "hh-sol-artifact-1",
  "contractName": "Dmusic",
  "sourceName": "contracts/Dmusic.sol",
  "abi": [
    {
      "inputs": [],
      "stateMutability": "nonpayable",
      "type": "constructor"
    },
    {
      "anonymous": false,
      "inputs": [
        {
          "indexed": false,
          "internalType": "string",
          "name": "artistName",
          "type": "string"
        },
        {
          "indexed": false,
          "internalType": "string",
          "name": "audienceName",
          "type": "string"
        },
        {
          "indexed": false,
          "internalType": "uint256",
          "name": "amount",
          "type": "uint256"
        }
      ],
      "name": "artistDonated",
      "type": "event"
    },
    {
      "anonymous": false,
      "inputs": [
        {
          "indexed": false,
          "internalType": "uint256",
          "name": "songID",
          "type": "uint256"
        },
        {
          "indexed": false,
          "internalType": "string",
          "name": "songName",
          "type": "string"
        },
        {
          "indexed": false,
          "internalType": "string",
          "name": "artistName",
          "type": "string"
        },
        {
          "indexed": false,
          "internalType": "uint256",
          "name": "price",
          "type": "uint256"
        }
      ],
      "name": "songAdded",
      "type": "event"
    },
    {
      "anonymous": false,
      "inputs": [
        {
          "indexed": false,
          "internalType": "uint256",
          "name": "songID",
          "type": "uint256"
        },
        {
          "indexed": false,
          "internalType": "string",
          "name": "songName",
          "type": "string"
        },
        {
          "indexed": false,
          "internalType": "string",
          "name": "audienceName",
          "type": "string"
        },
        {
          "indexed": false,
          "internalType": "uint256",
          "name": "price",
          "type": "uint256"
        }
      ],
      "name": "songPurchased",
      "type": "event"
    },
    {
      "inputs": [],
      "name": "addNewArtist",
      "outputs": [],
      "stateMutability": "nonpayable",
      "type": "function"
    },
    {
      "inputs": [
        {
          "internalType": "string",
          "name": "_name",
          "type": "string"
        }
      ],
      "name": "addNewAudience",
      "outputs": [],
      "stateMutability": "nonpayable",
      "type": "function"
    },
    {
      "inputs": [
        {
          "internalType": "string",
          "name": "_name",
          "type": "string"
        },
        {
          "internalType": "string",
          "name": "_genre",
          "type": "string"
        },
        {
          "internalType": "string",
          "name": "_hash",
          "type": "string"
        },
        {
          "internalType": "uint256",
          "name": "_price",
          "type": "uint256"
        }
      ],
      "name": "addSong",
      "outputs": [],
      "stateMutability": "nonpayable",
      "type": "function"
    },
    {
      "inputs": [
        {
          "internalType": "uint256",
          "name": "_songID",
          "type": "uint256"
        }
      ],
      "name": "buySong",
      "outputs": [],
      "stateMutability": "payable",
      "type": "function"
    },
    {
      "inputs": [],
      "name": "checkArtist",
      "outputs": [
        {
          "internalType": "bool",
          "name": "",
          "type": "bool"
        }
      ],
      "stateMutability": "view",
      "type": "function"
    },
    {
      "inputs": [],
      "name": "checkUser",
      "outputs": [
        {
          "internalType": "bool",
          "name": "",
          "type": "bool"
        }
      ],
      "stateMutability": "view",
      "type": "function"
    },
    {
      "inputs": [
        {
          "internalType": "uint256",
          "name": "_artistIDTracker",
          "type": "uint256"
        },
        {
          "internalType": "uint256",
          "name": "_amount",
          "type": "uint256"
        }
      ],
      "name": "donateArtist",
      "outputs": [],
      "stateMutability": "payable",
      "type": "function"
    },
    {
      "inputs": [],
      "name": "getArtistDetails",
      "outputs": [
        {
          "internalType": "string",
          "name": "",
          "type": "string"
        },
        {
          "internalType": "uint256",
          "name": "",
          "type": "uint256"
        },
        {
          "internalType": "uint256[]",
          "name": "",
          "type": "uint256[]"
        }
      ],
      "stateMutability": "view",
      "type": "function"
    },
    {
      "inputs": [],
      "name": "getAudienceDetails",
      "outputs": [
        {
          "internalType": "string",
          "name": "",
          "type": "string"
        },
        {
          "internalType": "uint256",
          "name": "",
          "type": "uint256"
        },
        {
          "internalType": "uint256[]",
          "name": "",
          "type": "uint256[]"
        }
      ],
      "stateMutability": "view",
      "type": "function"
    },
    {
      "inputs": [],
      "name": "getNumSongs",
      "outputs": [
        {
          "internalType": "uint256",
          "name": "",
          "type": "uint256"
        }
      ],
      "stateMutability": "view",
      "type": "function"
    },
    {
      "inputs": [
        {
          "internalType": "uint256",
          "name": "_songID",
          "type": "uint256"
        }
      ],
      "name": "getSongDetails",
      "outputs": [
        {
          "internalType": "string",
          "name": "",
          "type": "string"
        },
        {
          "internalType": "string",
          "name": "",
          "type": "string"
        },
        {
          "internalType": "string",
          "name": "",
          "type": "string"
        },
        {
          "internalType": "string",
          "name": "",
          "type": "string"
        },
        {
          "internalType": "uint256",
          "name": "",
          "type": "uint256"
        },
        {
          "internalType": "uint256",
          "name": "",
          "type": "uint256"
        }
      ],
      "stateMutability": "view",
      "type": "function"
    }
  ],
  "bytecode": "0x608060405234801561001057600080fd5b50600080819055506000600181905550600060028190555061253d806100376000396000f3fe60806040526004361061009c5760003560e01c80637f7a4510116100645780637f7a45101461017e578063bddff768146101ab578063c1562547146101d8578063cb77ce7f14610203578063e32500cc1461021f578063f29b4165146102365761009c565b80630c58d5b1146100a15780631a0cd343146100cc5780634295c8be146100f5578063606a01751461012057806377822fc21461013c575b600080fd5b3480156100ad57600080fd5b506100b661025f565b6040516100c391906118e7565b60405180910390f35b3480156100d857600080fd5b506100f360048036038101906100ee9190611a5c565b610269565b005b34801561010157600080fd5b5061010a61033e565b6040516101179190611ac0565b60405180910390f35b61013a60048036038101906101359190611b07565b610392565b005b34801561014857600080fd5b50610163600480360381019061015e9190611b07565b61078a565b60405161017596959493929190611bb3565b60405180910390f35b34801561018a57600080fd5b50610193610a5b565b6040516101a293929190611cee565b60405180910390f35b3480156101b757600080fd5b506101c0610c11565b6040516101cf93929190611cee565b60405180910390f35b3480156101e457600080fd5b506101ed610dc7565b6040516101fa9190611ac0565b60405180910390f35b61021d60048036038101906102189190611d33565b610e1b565b005b34801561022b57600080fd5b50610234611181565b005b34801561024257600080fd5b5061025d60048036038101906102589190611d73565b6113b6565b005b6000600254905090565b600160008082825461027b9190611e5d565b925050819055506000600660003373ffffffffffffffffffffffffffffffffffffffff1673ffffffffffffffffffffffffffffffffffffffff1681526020019081526020016000209050818160000190816102d6919061209d565b5060005481600101819055506001600360003373ffffffffffffffffffffffffffffffffffffffff1673ffffffffffffffffffffffffffffffffffffffff16815260200190815260200160002060006101000a81548160ff0219169083151502179055505050565b6000600460003373ffffffffffffffffffffffffffffffffffffffff1673ffffffffffffffffffffffffffffffffffffffff16815260200190815260200160002060009054906101000a900460ff16905090565b60011515600360003373ffffffffffffffffffffffffffffffffffffffff1673ffffffffffffffffffffffffffffffffffffffff16815260200190815260200160002060009054906101000a900460ff16151514610425576040517f08c379a000000000000000000000000000000000000000000000000000000000815260040161041c906121bb565b60405180910390fd5b600660003373ffffffffffffffffffffffffffffffffffffffff1673ffffffffffffffffffffffffffffffffffffffff168152602001908152602001600020600301600082815260200190815260200160002060009054906101000a900460ff16156104c6576040517f08c379a00000000000000000000000000000000000000000000000000000000081526004016104bd90612227565b60405180910390fd5b60076000828152602001908152602001600020600501543373ffffffffffffffffffffffffffffffffffffffff163111610535576040517f08c379a000000000000000000000000000000000000000000000000000000000815260040161052c90612293565b60405180910390fd5b6007600082815260200190815260200160002060060160009054906101000a900473ffffffffffffffffffffffffffffffffffffffff1673ffffffffffffffffffffffffffffffffffffffff166108fc60076000848152602001908152602001600020600501549081150290604051600060405180830381858888f193505050501580156105c7573d6000803e3d6000fd5b5060016008600083815260200190815260200160002060008282546105ec9190611e5d565b92505081905550600660003373ffffffffffffffffffffffffffffffffffffffff1673ffffffffffffffffffffffffffffffffffffffff1681526020019081526020016000206002018190806001815401808255809150506001900390600052602060002001600090919091909150556001600660003373ffffffffffffffffffffffffffffffffffffffff1673ffffffffffffffffffffffffffffffffffffffff168152602001908152602001600020600301600083815260200190815260200160002060006101000a81548160ff0219169083151502179055507f4d5d3c0b738fd8f4b26fa11966a64c4b072cb5837aadaf02808df71f883a5d51600760008381526020019081526020016000206004015460076000848152602001908152602001600020600001600660003373ffffffffffffffffffffffffffffffffffffffff1673ffffffffffffffffffffffffffffffffffffffff168152602001908152602001600020600001600760008681526020019081526020016000206005015460405161077f9493929190612337565b60405180910390a150565b6060806060806000806007600088815260200190815260200160002060000160076000898152602001908152602001600020600101600760008a8152602001908152602001600020600201600760008b8152602001908152602001600020600301600760008c815260200190815260200160002060050154600860008d81526020019081526020016000205485805461082290611ec0565b80601f016020809104026020016040519081016040528092919081815260200182805461084e90611ec0565b801561089b5780601f106108705761010080835404028352916020019161089b565b820191906000526020600020905b81548152906001019060200180831161087e57829003601f168201915b505050505095508480546108ae90611ec0565b80601f01602080910402602001604051908101604052809291908181526020018280546108da90611ec0565b80156109275780601f106108fc57610100808354040283529160200191610927565b820191906000526020600020905b81548152906001019060200180831161090a57829003601f168201915b5050505050945083805461093a90611ec0565b80601f016020809104026020016040519081016040528092919081815260200182805461096690611ec0565b80156109b35780601f10610988576101008083540402835291602001916109b3565b820191906000526020600020905b81548152906001019060200180831161099657829003601f168201915b505050505093508280546109c690611ec0565b80601f01602080910402602001604051908101604052809291908181526020018280546109f290611ec0565b8015610a3f5780601f10610a1457610100808354040283529160200191610a3f565b820191906000526020600020905b815481529060010190602001808311610a2257829003601f168201915b5050505050925095509550955095509550955091939550919395565b606060006060600560003373ffffffffffffffffffffffffffffffffffffffff1673ffffffffffffffffffffffffffffffffffffffff168152602001908152602001600020600001600560003373ffffffffffffffffffffffffffffffffffffffff1673ffffffffffffffffffffffffffffffffffffffff16815260200190815260200160002060010154600560003373ffffffffffffffffffffffffffffffffffffffff1673ffffffffffffffffffffffffffffffffffffffff168152602001908152602001600020600201828054610b3490611ec0565b80601f0160208091040260200160405190810160405280929190818152602001828054610b6090611ec0565b8015610bad5780601f10610b8257610100808354040283529160200191610bad565b820191906000526020600020905b815481529060010190602001808311610b9057829003601f168201915b5050505050925080805480602002602001604051908101604052809291908181526020018280548015610bff57602002820191906000526020600020905b815481526020019060010190808311610beb575b50505050509050925092509250909192565b606060006060600660003373ffffffffffffffffffffffffffffffffffffffff1673ffffffffffffffffffffffffffffffffffffffff168152602001908152602001600020600001600660003373ffffffffffffffffffffffffffffffffffffffff1673ffffffffffffffffffffffffffffffffffffffff16815260200190815260200160002060010154600660003373ffffffffffffffffffffffffffffffffffffffff1673ffffffffffffffffffffffffffffffffffffffff168152602001908152602001600020600201828054610cea90611ec0565b80601f0160208091040260200160405190810160405280929190818152602001828054610d1690611ec0565b8015610d635780601f10610d3857610100808354040283529160200191610d63565b820191906000526020600020905b815481529060010190602001808311610d4657829003601f168201915b5050505050925080805480602002602001604051908101604052809291908181526020018280548015610db557602002820191906000526020600020905b815481526020019060010190808311610da1575b50505050509050925092509250909192565b6000600360003373ffffffffffffffffffffffffffffffffffffffff1673ffffffffffffffffffffffffffffffffffffffff16815260200190815260200160002060009054906101000a900460ff16905090565b60011515600360003373ffffffffffffffffffffffffffffffffffffffff1673ffffffffffffffffffffffffffffffffffffffff16815260200190815260200160002060009054906101000a900460ff16151514610eae576040517f08c379a0000000000000000000000000000000000000000000000000000000008152600401610ea5906121bb565b60405180910390fd5b6000600a600084815260200190815260200160002060009054906101000a900473ffffffffffffffffffffffffffffffffffffffff1690506000600560008373ffffffffffffffffffffffffffffffffffffffff1673ffffffffffffffffffffffffffffffffffffffff168152602001908152602001600020604051806060016040529081600082018054610f4290611ec0565b80601f0160208091040260200160405190810160405280929190818152602001828054610f6e90611ec0565b8015610fbb5780601f10610f9057610100808354040283529160200191610fbb565b820191906000526020600020905b815481529060010190602001808311610f9e57829003601f168201915b50505050508152602001600182015481526020016002820180548060200260200160405190810160405280929190818152602001828054801561101d57602002820191906000526020600020905b815481526020019060010190808311611009575b5050505050815250509050823373ffffffffffffffffffffffffffffffffffffffff163111611081576040517f08c379a000000000000000000000000000000000000000000000000000000000815260040161107890612293565b60405180910390fd5b600a600085815260200190815260200160002060009054906101000a900473ffffffffffffffffffffffffffffffffffffffff1673ffffffffffffffffffffffffffffffffffffffff166108fc849081150290604051600060405180830381858888f193505050501580156110fa573d6000803e3d6000fd5b507f19fc7073cff31b76fe0bf3c801e7fe11652310c62d0c225a9995a5d30940c6488160000151600660003373ffffffffffffffffffffffffffffffffffffffff1673ffffffffffffffffffffffffffffffffffffffff168152602001908152602001600020600001856040516111739392919061238a565b60405180910390a150505050565b6000600660003373ffffffffffffffffffffffffffffffffffffffff1673ffffffffffffffffffffffffffffffffffffffff168152602001908152602001600020905060018060008282546111d69190611e5d565b925050819055506111e56117f0565b8160000180546111f490611ec0565b80601f016020809104026020016040519081016040528092919081815260200182805461122090611ec0565b801561126d5780601f106112425761010080835404028352916020019161126d565b820191906000526020600020905b81548152906001019060200180831161125057829003601f168201915b5050505050816000018190525060015481602001818152505033600a6000600154815260200190815260200160002060006101000a81548173ffffffffffffffffffffffffffffffffffffffff021916908373ffffffffffffffffffffffffffffffffffffffff16021790555080600560003373ffffffffffffffffffffffffffffffffffffffff1673ffffffffffffffffffffffffffffffffffffffff168152602001908152602001600020600082015181600001908161132f919061209d565b50602082015181600101556040820151816002019080519060200190611356929190611811565b509050506001600460003373ffffffffffffffffffffffffffffffffffffffff1673ffffffffffffffffffffffffffffffffffffffff16815260200190815260200160002060006101000a81548160ff0219169083151502179055505050565b60011515600360003373ffffffffffffffffffffffffffffffffffffffff1673ffffffffffffffffffffffffffffffffffffffff16815260200190815260200160002060009054906101000a900460ff16151514611449576040517f08c379a0000000000000000000000000000000000000000000000000000000008152600401611440906121bb565b60405180910390fd5b600982604051611459919061240b565b908152602001604051809103902060009054906101000a900460ff16156114b5576040517f08c379a00000000000000000000000000000000000000000000000000000000081526004016114ac90612494565b60405180910390fd5b6001600260008282546114c89190611e5d565b925050819055506114d761185e565b600254816080018181525050848160000181905250600560003373ffffffffffffffffffffffffffffffffffffffff1673ffffffffffffffffffffffffffffffffffffffff168152602001908152602001600020600001805461153990611ec0565b80601f016020809104026020016040519081016040528092919081815260200182805461156590611ec0565b80156115b25780601f10611587576101008083540402835291602001916115b2565b820191906000526020600020905b81548152906001019060200180831161159557829003601f168201915b50505050508160200181905250838160400181905250828160600181905250818160a0018181525050338160c0019073ffffffffffffffffffffffffffffffffffffffff16908173ffffffffffffffffffffffffffffffffffffffff1681525050600060086000600254815260200190815260200160002081905550806007600060025481526020019081526020016000206000820151816000019081611659919061209d565b50602082015181600101908161166f919061209d565b506040820151816002019081611685919061209d565b50606082015181600301908161169b919061209d565b506080820151816004015560a0820151816005015560c08201518160060160006101000a81548173ffffffffffffffffffffffffffffffffffffffff021916908373ffffffffffffffffffffffffffffffffffffffff160217905550905050600560003373ffffffffffffffffffffffffffffffffffffffff1673ffffffffffffffffffffffffffffffffffffffff16815260200190815260200160002060020160025490806001815401808255809150506001900390600052602060002001600090919091909150556001600984604051611777919061240b565b908152602001604051809103902060006101000a81548160ff0219169083151502179055507f8c6d5283b06a4f84805865678e0a51043ab4788bdd609db7c5cbe4c6fce5c97f8160800151826000015183602001518460a001516040516117e194939291906124b4565b60405180910390a15050505050565b60405180606001604052806060815260200160008152602001606081525090565b82805482825590600052602060002090810192821561184d579160200282015b8281111561184c578251825591602001919060010190611831565b5b50905061185a91906118b1565b5090565b6040518060e00160405280606081526020016060815260200160608152602001606081526020016000815260200160008152602001600073ffffffffffffffffffffffffffffffffffffffff1681525090565b5b808211156118ca5760008160009055506001016118b2565b5090565b6000819050919050565b6118e1816118ce565b82525050565b60006020820190506118fc60008301846118d8565b92915050565b6000604051905090565b600080fd5b600080fd5b600080fd5b600080fd5b6000601f19601f8301169050919050565b7f4e487b7100000000000000000000000000000000000000000000000000000000600052604160045260246000fd5b61196982611920565b810181811067ffffffffffffffff8211171561198857611987611931565b5b80604052505050565b600061199b611902565b90506119a78282611960565b919050565b600067ffffffffffffffff8211156119c7576119c6611931565b5b6119d082611920565b9050602081019050919050565b82818337600083830152505050565b60006119ff6119fa846119ac565b611991565b905082815260208101848484011115611a1b57611a1a61191b565b5b611a268482856119dd565b509392505050565b600082601f830112611a4357611a42611916565b5b8135611a538482602086016119ec565b91505092915050565b600060208284031215611a7257611a7161190c565b5b600082013567ffffffffffffffff811115611a9057611a8f611911565b5b611a9c84828501611a2e565b91505092915050565b60008115159050919050565b611aba81611aa5565b82525050565b6000602082019050611ad56000830184611ab1565b92915050565b611ae4816118ce565b8114611aef57600080fd5b50565b600081359050611b0181611adb565b92915050565b600060208284031215611b1d57611b1c61190c565b5b6000611b2b84828501611af2565b91505092915050565b600081519050919050565b600082825260208201905092915050565b60005b83811015611b6e578082015181840152602081019050611b53565b60008484015250505050565b6000611b8582611b34565b611b8f8185611b3f565b9350611b9f818560208601611b50565b611ba881611920565b840191505092915050565b600060c0820190508181036000830152611bcd8189611b7a565b90508181036020830152611be18188611b7a565b90508181036040830152611bf58187611b7a565b90508181036060830152611c098186611b7a565b9050611c1860808301856118d8565b611c2560a08301846118d8565b979650505050505050565b600081519050919050565b600082825260208201905092915050565b6000819050602082019050919050565b611c65816118ce565b82525050565b6000611c778383611c5c565b60208301905092915050565b6000602082019050919050565b6000611c9b82611c30565b611ca58185611c3b565b9350611cb083611c4c565b8060005b83811015611ce1578151611cc88882611c6b565b9750611cd383611c83565b925050600181019050611cb4565b5085935050505092915050565b60006060820190508181036000830152611d088186611b7a565b9050611d1760208301856118d8565b8181036040830152611d298184611c90565b9050949350505050565b60008060408385031215611d4a57611d4961190c565b5b6000611d5885828601611af2565b9250506020611d6985828601611af2565b9150509250929050565b60008060008060808587031215611d8d57611d8c61190c565b5b600085013567ffffffffffffffff811115611dab57611daa611911565b5b611db787828801611a2e565b945050602085013567ffffffffffffffff811115611dd857611dd7611911565b5b611de487828801611a2e565b935050604085013567ffffffffffffffff811115611e0557611e04611911565b5b611e1187828801611a2e565b9250506060611e2287828801611af2565b91505092959194509250565b7f4e487b7100000000000000000000000000000000000000000000000000000000600052601160045260246000fd5b6000611e68826118ce565b9150611e73836118ce565b9250828201905080821115611e8b57611e8a611e2e565b5b92915050565b7f4e487b7100000000000000000000000000000000000000000000000000000000600052602260045260246000fd5b60006002820490506001821680611ed857607f821691505b602082108103611eeb57611eea611e91565b5b50919050565b60008190508160005260206000209050919050565b60006020601f8301049050919050565b600082821b905092915050565b600060088302611f537fffffffffffffffffffffffffffffffffffffffffffffffffffffffffffffffff82611f16565b611f5d8683611f16565b95508019841693508086168417925050509392505050565b6000819050919050565b6000611f9a611f95611f90846118ce565b611f75565b6118ce565b9050919050565b6000819050919050565b611fb483611f7f565b611fc8611fc082611fa1565b848454611f23565b825550505050565b600090565b611fdd611fd0565b611fe8818484611fab565b505050565b5b8181101561200c57612001600082611fd5565b600181019050611fee565b5050565b601f8211156120515761202281611ef1565b61202b84611f06565b8101602085101561203a578190505b61204e61204685611f06565b830182611fed565b50505b505050565b600082821c905092915050565b600061207460001984600802612056565b1980831691505092915050565b600061208d8383612063565b9150826002028217905092915050565b6120a682611b34565b67ffffffffffffffff8111156120bf576120be611931565b5b6120c98254611ec0565b6120d4828285612010565b600060209050601f83116001811461210757600084156120f5578287015190505b6120ff8582612081565b865550612167565b601f19841661211586611ef1565b60005b8281101561213d57848901518255600182019150602085019450602081019050612118565b8683101561215a5784890151612156601f891682612063565b8355505b6001600288020188555050505b505050505050565b7f4e6f7420616e20757365722e0000000000000000000000000000000000000000600082015250565b60006121a5600c83611b3f565b91506121b08261216f565b602082019050919050565b600060208201905081810360008301526121d481612198565b9050919050565b7f43616e6e6f74206275792074686520736f6e672074776963652e000000000000600082015250565b6000612211601a83611b3f565b915061221c826121db565b602082019050919050565b6000602082019050818103600083015261224081612204565b9050919050565b7f496e73756666696369656e742062616c616e63652e0000000000000000000000600082015250565b600061227d601583611b3f565b915061228882612247565b602082019050919050565b600060208201905081810360008301526122ac81612270565b9050919050565b600081546122c081611ec0565b6122ca8186611b3f565b945060018216600081146122e557600181146122fb5761232e565b60ff19831686528115156020028601935061232e565b61230485611ef1565b60005b8381101561232657815481890152600182019150602081019050612307565b808801955050505b50505092915050565b600060808201905061234c60008301876118d8565b818103602083015261235e81866122b3565b9050818103604083015261237281856122b3565b905061238160608301846118d8565b95945050505050565b600060608201905081810360008301526123a48186611b7a565b905081810360208301526123b881856122b3565b90506123c760408301846118d8565b949350505050565b600081905092915050565b60006123e582611b34565b6123ef81856123cf565b93506123ff818560208601611b50565b80840191505092915050565b600061241782846123da565b915081905092915050565b7f4475706c69636174652064657465637465642e20536f6e67206861736820616c60008201527f726561647920696e207573652e00000000000000000000000000000000000000602082015250565b600061247e602d83611b3f565b915061248982612422565b604082019050919050565b600060208201905081810360008301526124ad81612471565b9050919050565b60006080820190506124c960008301876118d8565b81810360208301526124db8186611b7a565b905081810360408301526124ef8185611b7a565b90506124fe60608301846118d8565b9594505050505056fea26469706673582212207fa3739f48eabc83977483ca1932e912f3c9d7fb824da7da9a42698f194ce00e64736f6c63430008120033",
  "linkReferences": {},
  "deployedLinkReferences": {}
}