{
  "_format": "hh-sol-artifact-1",
  "contractName": "Dmusic",
  "sourceName": "contracts/Dmusic.sol",
  "abi": [
    {
      "inputs": [],
      "stateMutability": "nonpayable",
      "type": "constructor"
    },
    {
      "anonymous": false,
      "inputs": [
        {
          "indexed": false,
          "internalType": "string",
          "name": "artistName",
          "type": "string"
        },
        {
          "indexed": false,
          "internalType": "string",
          "name": "audienceName",
          "type": "string"
        },
        {
          "indexed": false,
          "internalType": "uint256",
          "name": "amount",
          "type": "uint256"
        }
      ],
      "name": "artistDonated",
      "type": "event"
    },
    {
      "anonymous": false,
      "inputs": [
        {
          "indexed": false,
          "internalType": "uint256",
          "name": "songID",
          "type": "uint256"
        },
        {
          "indexed": false,
          "internalType": "string",
          "name": "songName",
          "type": "string"
        },
        {
          "indexed": false,
          "internalType": "string",
          "name": "artistName",
          "type": "string"
        },
        {
          "indexed": false,
          "internalType": "uint256",
          "name": "price",
          "type": "uint256"
        }
      ],
      "name": "songAdded",
      "type": "event"
    },
    {
      "anonymous": false,
      "inputs": [
        {
          "indexed": false,
          "internalType": "uint256",
          "name": "songID",
          "type": "uint256"
        },
        {
          "indexed": false,
          "internalType": "string",
          "name": "songName",
          "type": "string"
        },
        {
          "indexed": false,
          "internalType": "string",
          "name": "audienceName",
          "type": "string"
        },
        {
          "indexed": false,
          "internalType": "uint256",
          "name": "price",
          "type": "uint256"
        }
      ],
      "name": "songPurchased",
      "type": "event"
    },
    {
      "inputs": [],
      "name": "addNewArtist",
      "outputs": [],
      "stateMutability": "nonpayable",
      "type": "function"
    },
    {
      "inputs": [
        {
          "internalType": "string",
          "name": "_name",
          "type": "string"
        }
      ],
      "name": "addNewAudience",
      "outputs": [],
      "stateMutability": "nonpayable",
      "type": "function"
    },
    {
      "inputs": [
        {
          "internalType": "string",
          "name": "_name",
          "type": "string"
        },
        {
          "internalType": "string",
          "name": "_genre",
          "type": "string"
        },
        {
          "internalType": "string",
          "name": "_hash",
          "type": "string"
        },
        {
          "internalType": "uint256",
          "name": "_price",
          "type": "uint256"
        }
      ],
      "name": "addSong",
      "outputs": [],
      "stateMutability": "nonpayable",
      "type": "function"
    },
    {
      "inputs": [
        {
          "internalType": "uint256",
          "name": "_songID",
          "type": "uint256"
        }
      ],
      "name": "buySong",
      "outputs": [],
      "stateMutability": "payable",
      "type": "function"
    },
    {
      "inputs": [],
      "name": "checkArtist",
      "outputs": [
        {
          "internalType": "bool",
          "name": "",
          "type": "bool"
        }
      ],
      "stateMutability": "view",
      "type": "function"
    },
    {
      "inputs": [],
      "name": "checkUser",
      "outputs": [
        {
          "internalType": "bool",
          "name": "",
          "type": "bool"
        }
      ],
      "stateMutability": "view",
      "type": "function"
    },
    {
      "inputs": [
        {
          "internalType": "uint256",
          "name": "_artistIDTracker",
          "type": "uint256"
        }
      ],
      "name": "donateArtist",
      "outputs": [],
      "stateMutability": "payable",
      "type": "function"
    },
    {
      "inputs": [],
      "name": "getArtistDetails",
      "outputs": [
        {
          "internalType": "string",
          "name": "",
          "type": "string"
        },
        {
          "internalType": "uint256",
          "name": "",
          "type": "uint256"
        },
        {
          "internalType": "uint256[]",
          "name": "",
          "type": "uint256[]"
        }
      ],
      "stateMutability": "view",
      "type": "function"
    },
    {
      "inputs": [],
      "name": "getAudienceDetails",
      "outputs": [
        {
          "internalType": "string",
          "name": "",
          "type": "string"
        },
        {
          "internalType": "uint256",
          "name": "",
          "type": "uint256"
        },
        {
          "internalType": "uint256[]",
          "name": "",
          "type": "uint256[]"
        }
      ],
      "stateMutability": "view",
      "type": "function"
    },
    {
      "inputs": [],
      "name": "getNumSongs",
      "outputs": [
        {
          "internalType": "uint256",
          "name": "",
          "type": "uint256"
        }
      ],
      "stateMutability": "view",
      "type": "function"
    },
    {
      "inputs": [
        {
          "internalType": "uint256",
          "name": "_songID",
          "type": "uint256"
        }
      ],
      "name": "getSongDetails",
      "outputs": [
        {
          "internalType": "string",
          "name": "",
          "type": "string"
        },
        {
          "internalType": "string",
          "name": "",
          "type": "string"
        },
        {
          "internalType": "string",
          "name": "",
          "type": "string"
        },
        {
          "internalType": "string",
          "name": "",
          "type": "string"
        },
        {
          "internalType": "uint256",
          "name": "",
          "type": "uint256"
        },
        {
          "internalType": "uint256",
          "name": "",
          "type": "uint256"
        }
      ],
      "stateMutability": "view",
      "type": "function"
    }
  ],
  "bytecode": "0x608060405234801561001057600080fd5b506000808190555060006001819055506000600281905550612564806100376000396000f3fe60806040526004361061009c5760003560e01c80637f7a4510116100645780637f7a45101461017e578063aee6aec6146101ab578063bddff768146101c7578063c1562547146101f4578063e32500cc1461021f578063f29b4165146102365761009c565b80630c58d5b1146100a15780631a0cd343146100cc5780634295c8be146100f5578063606a01751461012057806377822fc21461013c575b600080fd5b3480156100ad57600080fd5b506100b661025f565b6040516100c3919061190c565b60405180910390f35b3480156100d857600080fd5b506100f360048036038101906100ee9190611a81565b610269565b005b34801561010157600080fd5b5061010a61033e565b6040516101179190611ae5565b60405180910390f35b61013a60048036038101906101359190611b2c565b610392565b005b34801561014857600080fd5b50610163600480360381019061015e9190611b2c565b6107b0565b60405161017596959493929190611bd8565b60405180910390f35b34801561018a57600080fd5b50610193610a81565b6040516101a293929190611d13565b60405180910390f35b6101c560048036038101906101c09190611b2c565b610c37565b005b3480156101d357600080fd5b506101dc610f9c565b6040516101eb93929190611d13565b60405180910390f35b34801561020057600080fd5b50610209611152565b6040516102169190611ae5565b60405180910390f35b34801561022b57600080fd5b506102346111a6565b005b34801561024257600080fd5b5061025d60048036038101906102589190611d58565b6113db565b005b6000600254905090565b600160008082825461027b9190611e42565b925050819055506000600660003373ffffffffffffffffffffffffffffffffffffffff1673ffffffffffffffffffffffffffffffffffffffff1681526020019081526020016000209050818160000190816102d69190612082565b5060005481600101819055506001600360003373ffffffffffffffffffffffffffffffffffffffff1673ffffffffffffffffffffffffffffffffffffffff16815260200190815260200160002060006101000a81548160ff0219169083151502179055505050565b6000600460003373ffffffffffffffffffffffffffffffffffffffff1673ffffffffffffffffffffffffffffffffffffffff16815260200190815260200160002060009054906101000a900460ff16905090565b60011515600360003373ffffffffffffffffffffffffffffffffffffffff1673ffffffffffffffffffffffffffffffffffffffff16815260200190815260200160002060009054906101000a900460ff16151514610425576040517f08c379a000000000000000000000000000000000000000000000000000000000815260040161041c906121a0565b60405180910390fd5b600660003373ffffffffffffffffffffffffffffffffffffffff1673ffffffffffffffffffffffffffffffffffffffff168152602001908152602001600020600301600082815260200190815260200160002060009054906101000a900460ff16156104c6576040517f08c379a00000000000000000000000000000000000000000000000000000000081526004016104bd9061220c565b60405180910390fd5b670de0b6b3a764000060076000838152602001908152602001600020600501546104f0919061222c565b3373ffffffffffffffffffffffffffffffffffffffff163111610548576040517f08c379a000000000000000000000000000000000000000000000000000000000815260040161053f906122ba565b60405180910390fd5b6007600082815260200190815260200160002060060160009054906101000a900473ffffffffffffffffffffffffffffffffffffffff1673ffffffffffffffffffffffffffffffffffffffff166108fc670de0b6b3a764000060076000858152602001908152602001600020600501546105c2919061222c565b9081150290604051600060405180830381858888f193505050501580156105ed573d6000803e3d6000fd5b5060016008600083815260200190815260200160002060008282546106129190611e42565b92505081905550600660003373ffffffffffffffffffffffffffffffffffffffff1673ffffffffffffffffffffffffffffffffffffffff1681526020019081526020016000206002018190806001815401808255809150506001900390600052602060002001600090919091909150556001600660003373ffffffffffffffffffffffffffffffffffffffff1673ffffffffffffffffffffffffffffffffffffffff168152602001908152602001600020600301600083815260200190815260200160002060006101000a81548160ff0219169083151502179055507f4d5d3c0b738fd8f4b26fa11966a64c4b072cb5837aadaf02808df71f883a5d51600760008381526020019081526020016000206004015460076000848152602001908152602001600020600001600660003373ffffffffffffffffffffffffffffffffffffffff1673ffffffffffffffffffffffffffffffffffffffff16815260200190815260200160002060000160076000868152602001908152602001600020600501546040516107a5949392919061235e565b60405180910390a150565b6060806060806000806007600088815260200190815260200160002060000160076000898152602001908152602001600020600101600760008a8152602001908152602001600020600201600760008b8152602001908152602001600020600301600760008c815260200190815260200160002060050154600860008d81526020019081526020016000205485805461084890611ea5565b80601f016020809104026020016040519081016040528092919081815260200182805461087490611ea5565b80156108c15780601f10610896576101008083540402835291602001916108c1565b820191906000526020600020905b8154815290600101906020018083116108a457829003601f168201915b505050505095508480546108d490611ea5565b80601f016020809104026020016040519081016040528092919081815260200182805461090090611ea5565b801561094d5780601f106109225761010080835404028352916020019161094d565b820191906000526020600020905b81548152906001019060200180831161093057829003601f168201915b5050505050945083805461096090611ea5565b80601f016020809104026020016040519081016040528092919081815260200182805461098c90611ea5565b80156109d95780601f106109ae576101008083540402835291602001916109d9565b820191906000526020600020905b8154815290600101906020018083116109bc57829003601f168201915b505050505093508280546109ec90611ea5565b80601f0160208091040260200160405190810160405280929190818152602001828054610a1890611ea5565b8015610a655780601f10610a3a57610100808354040283529160200191610a65565b820191906000526020600020905b815481529060010190602001808311610a4857829003601f168201915b5050505050925095509550955095509550955091939550919395565b606060006060600560003373ffffffffffffffffffffffffffffffffffffffff1673ffffffffffffffffffffffffffffffffffffffff168152602001908152602001600020600001600560003373ffffffffffffffffffffffffffffffffffffffff1673ffffffffffffffffffffffffffffffffffffffff16815260200190815260200160002060010154600560003373ffffffffffffffffffffffffffffffffffffffff1673ffffffffffffffffffffffffffffffffffffffff168152602001908152602001600020600201828054610b5a90611ea5565b80601f0160208091040260200160405190810160405280929190818152602001828054610b8690611ea5565b8015610bd35780601f10610ba857610100808354040283529160200191610bd3565b820191906000526020600020905b815481529060010190602001808311610bb657829003601f168201915b5050505050925080805480602002602001604051908101604052809291908181526020018280548015610c2557602002820191906000526020600020905b815481526020019060010190808311610c11575b50505050509050925092509250909192565b60011515600360003373ffffffffffffffffffffffffffffffffffffffff1673ffffffffffffffffffffffffffffffffffffffff16815260200190815260200160002060009054906101000a900460ff16151514610cca576040517f08c379a0000000000000000000000000000000000000000000000000000000008152600401610cc1906121a0565b60405180910390fd5b6000600a600083815260200190815260200160002060009054906101000a900473ffffffffffffffffffffffffffffffffffffffff1690506000600560008373ffffffffffffffffffffffffffffffffffffffff1673ffffffffffffffffffffffffffffffffffffffff168152602001908152602001600020604051806060016040529081600082018054610d5e90611ea5565b80601f0160208091040260200160405190810160405280929190818152602001828054610d8a90611ea5565b8015610dd75780601f10610dac57610100808354040283529160200191610dd7565b820191906000526020600020905b815481529060010190602001808311610dba57829003601f168201915b505050505081526020016001820154815260200160028201805480602002602001604051908101604052809291908181526020018280548015610e3957602002820191906000526020600020905b815481526020019060010190808311610e25575b5050505050815250509050343373ffffffffffffffffffffffffffffffffffffffff163111610e9d576040517f08c379a0000000000000000000000000000000000000000000000000000000008152600401610e94906122ba565b60405180910390fd5b600a600084815260200190815260200160002060009054906101000a900473ffffffffffffffffffffffffffffffffffffffff1673ffffffffffffffffffffffffffffffffffffffff166108fc349081150290604051600060405180830381858888f19350505050158015610f16573d6000803e3d6000fd5b507f19fc7073cff31b76fe0bf3c801e7fe11652310c62d0c225a9995a5d30940c6488160000151600660003373ffffffffffffffffffffffffffffffffffffffff1673ffffffffffffffffffffffffffffffffffffffff16815260200190815260200160002060000134604051610f8f939291906123b1565b60405180910390a1505050565b606060006060600660003373ffffffffffffffffffffffffffffffffffffffff1673ffffffffffffffffffffffffffffffffffffffff168152602001908152602001600020600001600660003373ffffffffffffffffffffffffffffffffffffffff1673ffffffffffffffffffffffffffffffffffffffff16815260200190815260200160002060010154600660003373ffffffffffffffffffffffffffffffffffffffff1673ffffffffffffffffffffffffffffffffffffffff16815260200190815260200160002060020182805461107590611ea5565b80601f01602080910402602001604051908101604052809291908181526020018280546110a190611ea5565b80156110ee5780601f106110c3576101008083540402835291602001916110ee565b820191906000526020600020905b8154815290600101906020018083116110d157829003601f168201915b505050505092508080548060200260200160405190810160405280929190818152602001828054801561114057602002820191906000526020600020905b81548152602001906001019080831161112c575b50505050509050925092509250909192565b6000600360003373ffffffffffffffffffffffffffffffffffffffff1673ffffffffffffffffffffffffffffffffffffffff16815260200190815260200160002060009054906101000a900460ff16905090565b6000600660003373ffffffffffffffffffffffffffffffffffffffff1673ffffffffffffffffffffffffffffffffffffffff168152602001908152602001600020905060018060008282546111fb9190611e42565b9250508190555061120a611815565b81600001805461121990611ea5565b80601f016020809104026020016040519081016040528092919081815260200182805461124590611ea5565b80156112925780601f1061126757610100808354040283529160200191611292565b820191906000526020600020905b81548152906001019060200180831161127557829003601f168201915b5050505050816000018190525060015481602001818152505033600a6000600154815260200190815260200160002060006101000a81548173ffffffffffffffffffffffffffffffffffffffff021916908373ffffffffffffffffffffffffffffffffffffffff16021790555080600560003373ffffffffffffffffffffffffffffffffffffffff1673ffffffffffffffffffffffffffffffffffffffff16815260200190815260200160002060008201518160000190816113549190612082565b5060208201518160010155604082015181600201908051906020019061137b929190611836565b509050506001600460003373ffffffffffffffffffffffffffffffffffffffff1673ffffffffffffffffffffffffffffffffffffffff16815260200190815260200160002060006101000a81548160ff0219169083151502179055505050565b60011515600360003373ffffffffffffffffffffffffffffffffffffffff1673ffffffffffffffffffffffffffffffffffffffff16815260200190815260200160002060009054906101000a900460ff1615151461146e576040517f08c379a0000000000000000000000000000000000000000000000000000000008152600401611465906121a0565b60405180910390fd5b60098260405161147e9190612432565b908152602001604051809103902060009054906101000a900460ff16156114da576040517f08c379a00000000000000000000000000000000000000000000000000000000081526004016114d1906124bb565b60405180910390fd5b6001600260008282546114ed9190611e42565b925050819055506114fc611883565b600254816080018181525050848160000181905250600560003373ffffffffffffffffffffffffffffffffffffffff1673ffffffffffffffffffffffffffffffffffffffff168152602001908152602001600020600001805461155e90611ea5565b80601f016020809104026020016040519081016040528092919081815260200182805461158a90611ea5565b80156115d75780601f106115ac576101008083540402835291602001916115d7565b820191906000526020600020905b8154815290600101906020018083116115ba57829003601f168201915b50505050508160200181905250838160400181905250828160600181905250818160a0018181525050338160c0019073ffffffffffffffffffffffffffffffffffffffff16908173ffffffffffffffffffffffffffffffffffffffff168152505060006008600060025481526020019081526020016000208190555080600760006002548152602001908152602001600020600082015181600001908161167e9190612082565b5060208201518160010190816116949190612082565b5060408201518160020190816116aa9190612082565b5060608201518160030190816116c09190612082565b506080820151816004015560a0820151816005015560c08201518160060160006101000a81548173ffffffffffffffffffffffffffffffffffffffff021916908373ffffffffffffffffffffffffffffffffffffffff160217905550905050600560003373ffffffffffffffffffffffffffffffffffffffff1673ffffffffffffffffffffffffffffffffffffffff1681526020019081526020016000206002016002549080600181540180825580915050600190039060005260206000200160009091909190915055600160098460405161179c9190612432565b908152602001604051809103902060006101000a81548160ff0219169083151502179055507f8c6d5283b06a4f84805865678e0a51043ab4788bdd609db7c5cbe4c6fce5c97f8160800151826000015183602001518460a0015160405161180694939291906124db565b60405180910390a15050505050565b60405180606001604052806060815260200160008152602001606081525090565b828054828255906000526020600020908101928215611872579160200282015b82811115611871578251825591602001919060010190611856565b5b50905061187f91906118d6565b5090565b6040518060e00160405280606081526020016060815260200160608152602001606081526020016000815260200160008152602001600073ffffffffffffffffffffffffffffffffffffffff1681525090565b5b808211156118ef5760008160009055506001016118d7565b5090565b6000819050919050565b611906816118f3565b82525050565b600060208201905061192160008301846118fd565b92915050565b6000604051905090565b600080fd5b600080fd5b600080fd5b600080fd5b6000601f19601f8301169050919050565b7f4e487b7100000000000000000000000000000000000000000000000000000000600052604160045260246000fd5b61198e82611945565b810181811067ffffffffffffffff821117156119ad576119ac611956565b5b80604052505050565b60006119c0611927565b90506119cc8282611985565b919050565b600067ffffffffffffffff8211156119ec576119eb611956565b5b6119f582611945565b9050602081019050919050565b82818337600083830152505050565b6000611a24611a1f846119d1565b6119b6565b905082815260208101848484011115611a4057611a3f611940565b5b611a4b848285611a02565b509392505050565b600082601f830112611a6857611a6761193b565b5b8135611a78848260208601611a11565b91505092915050565b600060208284031215611a9757611a96611931565b5b600082013567ffffffffffffffff811115611ab557611ab4611936565b5b611ac184828501611a53565b91505092915050565b60008115159050919050565b611adf81611aca565b82525050565b6000602082019050611afa6000830184611ad6565b92915050565b611b09816118f3565b8114611b1457600080fd5b50565b600081359050611b2681611b00565b92915050565b600060208284031215611b4257611b41611931565b5b6000611b5084828501611b17565b91505092915050565b600081519050919050565b600082825260208201905092915050565b60005b83811015611b93578082015181840152602081019050611b78565b60008484015250505050565b6000611baa82611b59565b611bb48185611b64565b9350611bc4818560208601611b75565b611bcd81611945565b840191505092915050565b600060c0820190508181036000830152611bf28189611b9f565b90508181036020830152611c068188611b9f565b90508181036040830152611c1a8187611b9f565b90508181036060830152611c2e8186611b9f565b9050611c3d60808301856118fd565b611c4a60a08301846118fd565b979650505050505050565b600081519050919050565b600082825260208201905092915050565b6000819050602082019050919050565b611c8a816118f3565b82525050565b6000611c9c8383611c81565b60208301905092915050565b6000602082019050919050565b6000611cc082611c55565b611cca8185611c60565b9350611cd583611c71565b8060005b83811015611d06578151611ced8882611c90565b9750611cf883611ca8565b925050600181019050611cd9565b5085935050505092915050565b60006060820190508181036000830152611d2d8186611b9f565b9050611d3c60208301856118fd565b8181036040830152611d4e8184611cb5565b9050949350505050565b60008060008060808587031215611d7257611d71611931565b5b600085013567ffffffffffffffff811115611d9057611d8f611936565b5b611d9c87828801611a53565b945050602085013567ffffffffffffffff811115611dbd57611dbc611936565b5b611dc987828801611a53565b935050604085013567ffffffffffffffff811115611dea57611de9611936565b5b611df687828801611a53565b9250506060611e0787828801611b17565b91505092959194509250565b7f4e487b7100000000000000000000000000000000000000000000000000000000600052601160045260246000fd5b6000611e4d826118f3565b9150611e58836118f3565b9250828201905080821115611e7057611e6f611e13565b5b92915050565b7f4e487b7100000000000000000000000000000000000000000000000000000000600052602260045260246000fd5b60006002820490506001821680611ebd57607f821691505b602082108103611ed057611ecf611e76565b5b50919050565b60008190508160005260206000209050919050565b60006020601f8301049050919050565b600082821b905092915050565b600060088302611f387fffffffffffffffffffffffffffffffffffffffffffffffffffffffffffffffff82611efb565b611f428683611efb565b95508019841693508086168417925050509392505050565b6000819050919050565b6000611f7f611f7a611f75846118f3565b611f5a565b6118f3565b9050919050565b6000819050919050565b611f9983611f64565b611fad611fa582611f86565b848454611f08565b825550505050565b600090565b611fc2611fb5565b611fcd818484611f90565b505050565b5b81811015611ff157611fe6600082611fba565b600181019050611fd3565b5050565b601f8211156120365761200781611ed6565b61201084611eeb565b8101602085101561201f578190505b61203361202b85611eeb565b830182611fd2565b50505b505050565b600082821c905092915050565b60006120596000198460080261203b565b1980831691505092915050565b60006120728383612048565b9150826002028217905092915050565b61208b82611b59565b67ffffffffffffffff8111156120a4576120a3611956565b5b6120ae8254611ea5565b6120b9828285611ff5565b600060209050601f8311600181146120ec57600084156120da578287015190505b6120e48582612066565b86555061214c565b601f1984166120fa86611ed6565b60005b82811015612122578489015182556001820191506020850194506020810190506120fd565b8683101561213f578489015161213b601f891682612048565b8355505b6001600288020188555050505b505050505050565b7f4e6f7420616e20757365722e0000000000000000000000000000000000000000600082015250565b600061218a600c83611b64565b915061219582612154565b602082019050919050565b600060208201905081810360008301526121b98161217d565b9050919050565b7f43616e6e6f74206275792074686520736f6e672074776963652e000000000000600082015250565b60006121f6601a83611b64565b9150612201826121c0565b602082019050919050565b60006020820190508181036000830152612225816121e9565b9050919050565b6000612237826118f3565b9150612242836118f3565b9250828202612250816118f3565b9150828204841483151761226757612266611e13565b5b5092915050565b7f496e73756666696369656e742062616c616e63652e0000000000000000000000600082015250565b60006122a4601583611b64565b91506122af8261226e565b602082019050919050565b600060208201905081810360008301526122d381612297565b9050919050565b600081546122e781611ea5565b6122f18186611b64565b9450600182166000811461230c576001811461232257612355565b60ff198316865281151560200286019350612355565b61232b85611ed6565b60005b8381101561234d5781548189015260018201915060208101905061232e565b808801955050505b50505092915050565b600060808201905061237360008301876118fd565b818103602083015261238581866122da565b9050818103604083015261239981856122da565b90506123a860608301846118fd565b95945050505050565b600060608201905081810360008301526123cb8186611b9f565b905081810360208301526123df81856122da565b90506123ee60408301846118fd565b949350505050565b600081905092915050565b600061240c82611b59565b61241681856123f6565b9350612426818560208601611b75565b80840191505092915050565b600061243e8284612401565b915081905092915050565b7f4475706c69636174652064657465637465642e20536f6e67206861736820616c60008201527f726561647920696e207573652e00000000000000000000000000000000000000602082015250565b60006124a5602d83611b64565b91506124b082612449565b604082019050919050565b600060208201905081810360008301526124d481612498565b9050919050565b60006080820190506124f060008301876118fd565b81810360208301526125028186611b9f565b905081810360408301526125168185611b9f565b905061252560608301846118fd565b9594505050505056fea264697066735822122007f8fbb0775c00ab5e6cb38b7c227a65ea2fe69cee5310f7c059868476393a3b64736f6c63430008120033",
  "linkReferences": {},
  "deployedLinkReferences": {}
}